{
  "contractName": "DiaryRegistery",
  "abi": [
    {
      "inputs": [],
      "payable": false,
      "stateMutability": "nonpayable",
      "type": "constructor"
    },
    {
      "payable": true,
      "stateMutability": "payable",
      "type": "fallback"
    },
    {
      "anonymous": false,
      "inputs": [
        {
          "indexed": true,
          "name": "",
          "type": "address"
        },
        {
          "indexed": false,
          "name": "",
          "type": "uint256"
        }
      ],
      "name": "LogDonate",
      "type": "event"
    },
    {
      "constant": false,
      "inputs": [
        {
          "name": "name",
          "type": "string"
        },
        {
          "name": "accountAddress",
          "type": "address"
        }
      ],
      "name": "register",
      "outputs": [],
      "payable": false,
      "stateMutability": "nonpayable",
      "type": "function"
    },
    {
      "constant": true,
      "inputs": [],
      "name": "getNumberOfAcounts",
      "outputs": [
        {
          "name": "",
          "type": "uint256"
        }
      ],
      "payable": false,
      "stateMutability": "view",
      "type": "function"
    },
    {
      "constant": true,
      "inputs": [
        {
          "name": "name",
          "type": "string"
        }
      ],
      "name": "getAddressOfName",
      "outputs": [
        {
          "name": "",
          "type": "address"
        }
      ],
      "payable": false,
      "stateMutability": "view",
      "type": "function"
    },
    {
      "constant": true,
      "inputs": [
        {
          "name": "addr",
          "type": "address"
        }
      ],
      "name": "getNameOfAddress",
      "outputs": [
        {
          "name": "",
          "type": "string"
        }
      ],
      "payable": false,
      "stateMutability": "view",
      "type": "function"
    },
    {
      "constant": true,
      "inputs": [
        {
          "name": "id",
          "type": "uint256"
        }
      ],
      "name": "getAddressOfId",
      "outputs": [
        {
          "name": "",
          "type": "address"
        }
      ],
      "payable": false,
      "stateMutability": "view",
      "type": "function"
    },
    {
      "constant": false,
      "inputs": [],
      "name": "adminRegisteryDonations",
      "outputs": [],
      "payable": false,
      "stateMutability": "nonpayable",
      "type": "function"
    },
    {
      "constant": false,
      "inputs": [],
      "name": "adminDeleteRegistery",
      "outputs": [],
      "payable": false,
      "stateMutability": "nonpayable",
      "type": "function"
    }
  ],
  "bytecode": "0x608060405234801561001057600080fd5b5033600460006101000a81548173ffffffffffffffffffffffffffffffffffffffff021916908373ffffffffffffffffffffffffffffffffffffffff1602179055506000600381905550610d0f806100696000396000f3fe608060405260043610610083576000357c0100000000000000000000000000000000000000000000000000000000900463ffffffff1680631e59c529146100d357806338ec6ba8146101bb57806381167a41146102c35780639c9f07b4146102da578063b2dad25d14610305578063ec43eeb6146103cf578063f497591b1461044a575b3373ffffffffffffffffffffffffffffffffffffffff167fc651c526da5277c9cbde59963e1c4e6324da2fae97ff1e31a326a0475664a383346040518082815260200191505060405180910390a2005b3480156100df57600080fd5b506101b9600480360360408110156100f657600080fd5b810190808035906020019064010000000081111561011357600080fd5b82018360208201111561012557600080fd5b8035906020019184600183028401116401000000008311171561014757600080fd5b91908080601f016020809104026020016040519081016040528093929190818152602001838380828437600081840152601f19601f820116905080830192505050505050509192919290803573ffffffffffffffffffffffffffffffffffffffff169060200190929190505050610461565b005b3480156101c757600080fd5b50610281600480360360208110156101de57600080fd5b81019080803590602001906401000000008111156101fb57600080fd5b82018360208201111561020d57600080fd5b8035906020019184600183028401116401000000008311171561022f57600080fd5b91908080601f016020809104026020016040519081016040528093929190818152602001838380828437600081840152601f19601f82011690508083019250505050505050919291929050505061083b565b604051808273ffffffffffffffffffffffffffffffffffffffff1673ffffffffffffffffffffffffffffffffffffffff16815260200191505060405180910390f35b3480156102cf57600080fd5b506102d86108d0565b005b3480156102e657600080fd5b506102ef6109d0565b6040518082815260200191505060405180910390f35b34801561031157600080fd5b506103546004803603602081101561032857600080fd5b81019080803573ffffffffffffffffffffffffffffffffffffffff1690602001909291905050506109da565b6040518080602001828103825283818151815260200191508051906020019080838360005b83811015610394578082015181840152602081019050610379565b50505050905090810190601f1680156103c15780820380516001836020036101000a031916815260200191505b509250505060405180910390f35b3480156103db57600080fd5b50610408600480360360208110156103f257600080fd5b8101908080359060200190929190505050610aba565b604051808273ffffffffffffffffffffffffffffffffffffffff1673ffffffffffffffffffffffffffffffffffffffff16815260200191505060405180910390f35b34801561045657600080fd5b5061045f610af7565b005b600073ffffffffffffffffffffffffffffffffffffffff166002836040518082805190602001908083835b6020831015156104b1578051825260208201915060208101905060208303925061048c565b6001836020036101000a038019825116818451168082178552505050505050905001915050908152602001604051809103902060009054906101000a900473ffffffffffffffffffffffffffffffffffffffff1673ffffffffffffffffffffffffffffffffffffffff16141515610590576040517f08c379a00000000000000000000000000000000000000000000000000000000081526004018080602001828103825260128152602001807fe8b4a6e688b7e5b7b2e7bb8fe6b3a8e5868c000000000000000000000000000081525060200191505060405180910390fd5b60008060008373ffffffffffffffffffffffffffffffffffffffff1673ffffffffffffffffffffffffffffffffffffffff16815260200190815260200160002080546001816001161561010002031660029004905014151561065a576040517f08c379a00000000000000000000000000000000000000000000000000000000081526004018080602001828103825260128152602001807fe794a8e688b7e5908de5b7b2e5ad98e59ca8000000000000000000000000000081525060200191505060405180910390fd5b60408251111515156106d4576040517f08c379a00000000000000000000000000000000000000000000000000000000081526004018080602001828103825260178152602001807fe4b88de883bde8b685e8bf873238e4b8aae5ad97e7aca600000000000000000081525060200191505060405180910390fd5b816000808373ffffffffffffffffffffffffffffffffffffffff1673ffffffffffffffffffffffffffffffffffffffff1681526020019081526020016000209080519060200190610726929190610c3e565b50806002836040518082805190602001908083835b602083101515610760578051825260208201915060208101905060208303925061073b565b6001836020036101000a038019825116818451168082178552505050505050905001915050908152602001604051809103902060006101000a81548173ffffffffffffffffffffffffffffffffffffffff021916908373ffffffffffffffffffffffffffffffffffffffff1602179055508060016000600354815260200190815260200160002060006101000a81548173ffffffffffffffffffffffffffffffffffffffff021916908373ffffffffffffffffffffffffffffffffffffffff1602179055506003600081548092919060010191905055505050565b60006002826040518082805190602001908083835b6020831015156108755780518252602082019150602081019050602083039250610850565b6001836020036101000a038019825116818451168082178552505050505050905001915050908152602001604051809103902060009054906101000a900473ffffffffffffffffffffffffffffffffffffffff169050919050565b600460009054906101000a900473ffffffffffffffffffffffffffffffffffffffff1673ffffffffffffffffffffffffffffffffffffffff163373ffffffffffffffffffffffffffffffffffffffff16141515610995576040517f08c379a00000000000000000000000000000000000000000000000000000000081526004018080602001828103825260128152602001807fe4bda0e4b88de698afe7aea1e79086e59198000000000000000000000000000081525060200191505060405180910390fd5b600460009054906101000a900473ffffffffffffffffffffffffffffffffffffffff1673ffffffffffffffffffffffffffffffffffffffff16ff5b6000600354905090565b60606000808373ffffffffffffffffffffffffffffffffffffffff1673ffffffffffffffffffffffffffffffffffffffff1681526020019081526020016000208054600181600116156101000203166002900480601f016020809104026020016040519081016040528092919081815260200182805460018160011615610100020316600290048015610aae5780601f10610a8357610100808354040283529160200191610aae565b820191906000526020600020905b815481529060010190602001808311610a9157829003601f168201915b50505050509050919050565b60006001600083815260200190815260200160002060009054906101000a900473ffffffffffffffffffffffffffffffffffffffff169050919050565b600460009054906101000a900473ffffffffffffffffffffffffffffffffffffffff1673ffffffffffffffffffffffffffffffffffffffff163373ffffffffffffffffffffffffffffffffffffffff16141515610bbc576040517f08c379a00000000000000000000000000000000000000000000000000000000081526004018080602001828103825260128152602001807fe4bda0e4b88de698afe7aea1e79086e59198000000000000000000000000000081525060200191505060405180910390fd5b600460009054906101000a900473ffffffffffffffffffffffffffffffffffffffff1673ffffffffffffffffffffffffffffffffffffffff166108fc3073ffffffffffffffffffffffffffffffffffffffff16319081150290604051600060405180830381858888f19350505050158015610c3b573d6000803e3d6000fd5b50565b828054600181600116156101000203166002900490600052602060002090601f016020900481019282601f10610c7f57805160ff1916838001178555610cad565b82800160010185558215610cad579182015b82811115610cac578251825591602001919060010190610c91565b5b509050610cba9190610cbe565b5090565b610ce091905b80821115610cdc576000816000905550600101610cc4565b5090565b9056fea165627a7a723058206e47e5880055308d81b3713c2c431e1ad343da3b9c46f4bb61d23e3e6b52a0b90029",
  "source": "pragma solidity ^0.5.0;\n\ncontract  DiaryRegistery{\n\n    mapping(address=>string) _addressToAccountName;\n\n    mapping (uint=>address) _accountIdToAccountAddress;\n\n    mapping (string=>address) _accountNameToAddress;\n\n    uint _numberOfAccounts;\n\n    address payable _registeryAdmin;\n\n    modifier onlyRegisteryAdmin{\n        require(msg.sender == _registeryAdmin,\"你不是管理员\");\n        _;\n    }\n\n    constructor() public{\n        _registeryAdmin = msg.sender;\n        _numberOfAccounts = 0;\n    }\n\n    //在平台上注册：用户名，日记账户\n    function register(string memory name,address accountAddress) public {\n        require(_accountNameToAddress[name]==address(0),\"账户已经注册\");\n        require(bytes(_addressToAccountName[accountAddress]).length==0,\"用户名已存在\");\n        require(bytes(name).length <= 64,\"不能超过28个字符\");\n\n        _addressToAccountName[accountAddress] = name;\n        _accountNameToAddress[name] = accountAddress;\n        _accountIdToAccountAddress[_numberOfAccounts] = accountAddress;\n        _numberOfAccounts++;\n    }\n    //返回已注册账户数量\n    function getNumberOfAcounts() external view returns(uint) {\n        return _numberOfAccounts;\n    }\n\n    //根据昵称返回其日记的账户地址\n    function getAddressOfName(string memory name) public view returns (address) {\n        return _accountNameToAddress[name];\n    }\n\n    //根据日记账户返回昵称\n    function getNameOfAddress(address addr) external view returns(string memory) {\n        return _addressToAccountName[addr];\n    }\n\n    //根据Id返回账户\n    function getAddressOfId(uint id)external view returns(address) {\n        return _accountIdToAccountAddress[id];\n    }\n\n    //取回打赏\n    function adminRegisteryDonations() external onlyRegisteryAdmin {\n        _registeryAdmin.transfer(address(this).balance);\n    }\n\n    //摧毁合约\n    function adminDeleteRegistery( )external onlyRegisteryAdmin {\n        selfdestruct(_registeryAdmin);\n    }\n\n    //记录每条打赏记录\n    event LogDonate(address indexed,uint);\n\n    function()external payable{\n        emit LogDonate(msg.sender,msg.value);\n    }\n}",
  "sourcePath": "/home/blue/work/DIARY_DAPP/contracts/DiaryRegistery.sol",
  "compiler": {
    "name": "solc",
    "version": "0.5.0+commit.1d4f565a.Emscripten.clang"
  },
  "schemaVersion": "3.0.9",
  "updatedAt": "2019-06-02T14:42:00.572Z",
  "devdoc": {
    "methods": {}
  },
  "userdoc": {
    "methods": {}
  }
}