{
  "contractName": "DiaryAccount",
  "abi": [
    {
      "inputs": [],
      "payable": false,
      "stateMutability": "nonpayable",
      "type": "constructor"
    },
    {
      "payable": true,
      "stateMutability": "payable",
      "type": "fallback"
    },
    {
      "anonymous": false,
      "inputs": [
        {
          "indexed": true,
          "name": "",
          "type": "address"
        },
        {
          "indexed": false,
          "name": "",
          "type": "uint256"
        }
      ],
      "name": "LogDonate",
      "type": "event"
    },
    {
      "constant": false,
      "inputs": [
        {
          "name": "diaryString",
          "type": "string"
        }
      ],
      "name": "diary",
      "outputs": [],
      "payable": false,
      "stateMutability": "nonpayable",
      "type": "function"
    },
    {
      "constant": true,
      "inputs": [
        {
          "name": "diaryId",
          "type": "uint256"
        }
      ],
      "name": "getDiary",
      "outputs": [
        {
          "name": "",
          "type": "string"
        },
        {
          "name": "",
          "type": "uint256"
        }
      ],
      "payable": false,
      "stateMutability": "view",
      "type": "function"
    },
    {
      "constant": true,
      "inputs": [],
      "name": "getLastestDiary",
      "outputs": [
        {
          "name": "",
          "type": "string"
        },
        {
          "name": "",
          "type": "uint256"
        },
        {
          "name": "",
          "type": "uint256"
        }
      ],
      "payable": false,
      "stateMutability": "view",
      "type": "function"
    },
    {
      "constant": true,
      "inputs": [],
      "name": "getOwnerAddress",
      "outputs": [
        {
          "name": "",
          "type": "address"
        }
      ],
      "payable": false,
      "stateMutability": "view",
      "type": "function"
    },
    {
      "constant": true,
      "inputs": [],
      "name": "getNumberOfDiarys",
      "outputs": [
        {
          "name": "",
          "type": "uint256"
        }
      ],
      "payable": false,
      "stateMutability": "view",
      "type": "function"
    },
    {
      "constant": false,
      "inputs": [
        {
          "name": "receiver",
          "type": "address"
        }
      ],
      "name": "adminRetrieveDonations",
      "outputs": [],
      "payable": false,
      "stateMutability": "nonpayable",
      "type": "function"
    },
    {
      "constant": false,
      "inputs": [],
      "name": "adminDeleteAccount",
      "outputs": [],
      "payable": false,
      "stateMutability": "nonpayable",
      "type": "function"
    }
  ],
  "bytecode": "0x608060405234801561001057600080fd5b50600060018190555033600260006101000a81548173ffffffffffffffffffffffffffffffffffffffff021916908373ffffffffffffffffffffffffffffffffffffffff1602179055506109e1806100696000396000f3fe608060405260043610610083576000357c0100000000000000000000000000000000000000000000000000000000900463ffffffff1680630b4df27f146100d35780630c4f65bd146100fe5780631888e55f146101555780633c6806b8146101f35780633e450fff146102ae5780635c3e426c146102c5578063c00f24cd14610316575b3373ffffffffffffffffffffffffffffffffffffffff167fc651c526da5277c9cbde59963e1c4e6324da2fae97ff1e31a326a0475664a383346040518082815260200191505060405180910390a2005b3480156100df57600080fd5b506100e86103de565b6040518082815260200191505060405180910390f35b34801561010a57600080fd5b506101136103e8565b604051808273ffffffffffffffffffffffffffffffffffffffff1673ffffffffffffffffffffffffffffffffffffffff16815260200191505060405180910390f35b34801561016157600080fd5b5061016a610412565b6040518080602001848152602001838152602001828103825285818151815260200191508051906020019080838360005b838110156101b657808201518184015260208101905061019b565b50505050905090810190601f1680156101e35780820380516001836020036101000a031916815260200191505b5094505050505060405180910390f35b3480156101ff57600080fd5b5061022c6004803603602081101561021657600080fd5b81019080803590602001909291905050506104f4565b6040518080602001838152602001828103825284818151815260200191508051906020019080838360005b83811015610272578082015181840152602081019050610257565b50505050905090810190601f16801561029f5780820380516001836020036101000a031916815260200191505b50935050505060405180910390f35b3480156102ba57600080fd5b506102c36105c8565b005b3480156102d157600080fd5b50610314600480360360208110156102e857600080fd5b81019080803573ffffffffffffffffffffffffffffffffffffffff1690602001909291905050506106c8565b005b34801561032257600080fd5b506103dc6004803603602081101561033957600080fd5b810190808035906020019064010000000081111561035657600080fd5b82018360208201111561036857600080fd5b8035906020019184600183028401116401000000008311171561038a57600080fd5b91908080601f016020809104026020016040519081016040528093929190818152602001838380828437600081840152601f19601f8201169050808301925050505050505091929192905050506107ee565b005b6000600154905090565b6000600260009054906101000a900473ffffffffffffffffffffffffffffffffffffffff16905090565b6060600080600080600180540381526020019081526020016000206001016000806001805403815260200190815260200160002060000154600154828054600181600116156101000203166002900480601f0160208091040260200160405190810160405280929190818152602001828054600181600116156101000203166002900480156104e25780601f106104b7576101008083540402835291602001916104e2565b820191906000526020600020905b8154815290600101906020018083116104c557829003601f168201915b50505050509250925092509250909192565b6060600080600084815260200190815260200160002060010160008085815260200190815260200160002060000154818054600181600116156101000203166002900480601f0160208091040260200160405190810160405280929190818152602001828054600181600116156101000203166002900480156105b85780601f1061058d576101008083540402835291602001916105b8565b820191906000526020600020905b81548152906001019060200180831161059b57829003601f168201915b5050505050915091509150915091565b600260009054906101000a900473ffffffffffffffffffffffffffffffffffffffff1673ffffffffffffffffffffffffffffffffffffffff163373ffffffffffffffffffffffffffffffffffffffff1614151561068d576040517f08c379a00000000000000000000000000000000000000000000000000000000081526004018080602001828103825260158152602001807fe5bf85e9a1bbe698afe697a5e8aeb0e4b8bbe4baba000000000000000000000081525060200191505060405180910390fd5b600260009054906101000a900473ffffffffffffffffffffffffffffffffffffffff1673ffffffffffffffffffffffffffffffffffffffff16ff5b600260009054906101000a900473ffffffffffffffffffffffffffffffffffffffff1673ffffffffffffffffffffffffffffffffffffffff163373ffffffffffffffffffffffffffffffffffffffff1614151561078d576040517f08c379a00000000000000000000000000000000000000000000000000000000081526004018080602001828103825260158152602001807fe5bf85e9a1bbe698afe697a5e8aeb0e4b8bbe4baba000000000000000000000081525060200191505060405180910390fd5b8073ffffffffffffffffffffffffffffffffffffffff166108fc3073ffffffffffffffffffffffffffffffffffffffff16319081150290604051600060405180830381858888f193505050501580156107ea573d6000803e3d6000fd5b5050565b600260009054906101000a900473ffffffffffffffffffffffffffffffffffffffff1673ffffffffffffffffffffffffffffffffffffffff163373ffffffffffffffffffffffffffffffffffffffff161415156108b3576040517f08c379a00000000000000000000000000000000000000000000000000000000081526004018080602001828103825260158152602001807fe5bf85e9a1bbe698afe697a5e8aeb0e4b8bbe4baba000000000000000000000081525060200191505060405180910390fd5b4260008060015481526020019081526020016000206000018190555080600080600154815260200190815260200160002060010190805190602001906108fa929190610910565b5060016000815480929190600101919050555050565b828054600181600116156101000203166002900490600052602060002090601f016020900481019282601f1061095157805160ff191683800117855561097f565b8280016001018555821561097f579182015b8281111561097e578251825591602001919060010190610963565b5b50905061098c9190610990565b5090565b6109b291905b808211156109ae576000816000905550600101610996565b5090565b9056fea165627a7a723058204bcc193f21f24d0c7a7360d0124cfdc772a04755b0c165380b3243e9682367ea0029",
  "source": "pragma solidity ^0.5.0;\n\ncontract DiaryAccount{\n\n    struct Diary{\n        uint timestamp;\n        string diaryString;\n    }\n\n    mapping(uint =>  Diary) _diarys;\n\n    uint _numberOfDiarys;\n\n    address payable _adminAddress;\n\n    event LogDonate(address indexed, uint);\n\n    //权限控制\n    modifier onlyAdmin{\n        require(msg.sender == _adminAddress,\"必须是日记主人\");\n        _;\n    }\n\n    constructor() public{\n        _numberOfDiarys = 0;\n        _adminAddress = msg.sender;\n    }\n\n    //发日记\n    function diary(string memory diaryString)public onlyAdmin{\n        _diarys[_numberOfDiarys].timestamp = block.timestamp;\n        _diarys[_numberOfDiarys].diaryString = diaryString;\n        _numberOfDiarys++;\n    }\n\n    //根据ID获取日记\n    function getDiary(uint diaryId)external view returns( string memory, uint){\n        return(\n            _diarys[diaryId].diaryString,\n            _diarys[diaryId].timestamp\n        );\n    }\n\n    //获取最新的日记\n    function getLastestDiary()external view returns(string memory,uint,uint) {\n        return(\n            _diarys[_numberOfDiarys-1].diaryString,\n            _diarys[_numberOfDiarys-1].timestamp,\n            _numberOfDiarys\n        );\n    }\n\n    //得到日记的所有者\n    function getOwnerAddress() external view returns(address) {\n        return _adminAddress;\n    }\n\n    //得到日记的总数\n    function getNumberOfDiarys()external view returns(uint) {\n        return _numberOfDiarys;\n    }\n\n    //取回打赏\n    function adminRetrieveDonations(address payable receiver)public onlyAdmin{\n       receiver.transfer(address(this).balance);\n    }\n\n    //删除合约\n    function adminDeleteAccount()external onlyAdmin {\n        selfdestruct(_adminAddress);\n    }\n\n    //接受打赏\n    function ()external payable {\n       emit LogDonate(msg.sender,msg.value);\n    }\n}",
  "sourcePath": "/home/blue/work/DIARY_DAPP/contracts/DiaryAccount.sol",
  "compiler": {
    "name": "solc",
    "version": "0.5.0+commit.1d4f565a.Emscripten.clang"
  },
  "schemaVersion": "3.0.9",
  "updatedAt": "2019-06-02T14:42:00.570Z",
  "devdoc": {
    "methods": {}
  },
  "userdoc": {
    "methods": {}
  }
}